{
  "_format": "hh-sol-artifact-1",
  "contractName": "FileManagement",
  "sourceName": "contracts/FileManagement.sol",
  "abi": [
    {
      "inputs": [
        {
          "internalType": "uint256",
          "name": "_joinID",
          "type": "uint256"
        }
      ],
      "name": "cancelJoin",
      "outputs": [],
      "stateMutability": "nonpayable",
      "type": "function"
    },
    {
      "inputs": [
        {
          "internalType": "uint256",
          "name": "_joinID",
          "type": "uint256"
        },
        {
          "internalType": "bool",
          "name": "_approve",
          "type": "bool"
        },
        {
          "internalType": "string",
          "name": "_extMetadataCID",
          "type": "string"
        }
      ],
      "name": "evaluateJoinInbox",
      "outputs": [],
      "stateMutability": "nonpayable",
      "type": "function"
    },
    {
      "inputs": [],
      "name": "getIncomingFiles",
      "outputs": [
        {
          "components": [
            {
              "internalType": "uint256",
              "name": "blockID",
              "type": "uint256"
            },
            {
              "internalType": "uint256",
              "name": "forJoinID",
              "type": "uint256"
            },
            {
              "internalType": "bool",
              "name": "localPin",
              "type": "bool"
            },
            {
              "internalType": "address",
              "name": "sender",
              "type": "address"
            },
            {
              "internalType": "address",
              "name": "recipient",
              "type": "address"
            },
            {
              "internalType": "uint256",
              "name": "timestamp",
              "type": "uint256"
            },
            {
              "internalType": "string",
              "name": "extMetadataCID",
              "type": "string"
            },
            {
              "internalType": "string",
              "name": "intMetadataCID",
              "type": "string"
            },
            {
              "components": [
                {
                  "internalType": "bool",
                  "name": "isExpired",
                  "type": "bool"
                },
                {
                  "internalType": "bool",
                  "name": "isPrivate",
                  "type": "bool"
                },
                {
                  "internalType": "bool",
                  "name": "permitRecipientUpdate",
                  "type": "bool"
                }
              ],
              "internalType": "struct FileManagement.FileControlStruct",
              "name": "fileControl",
              "type": "tuple"
            }
          ],
          "internalType": "struct FileManagement.EventStruct[]",
          "name": "",
          "type": "tuple[]"
        }
      ],
      "stateMutability": "view",
      "type": "function"
    },
    {
      "inputs": [],
      "name": "getJoinInbox",
      "outputs": [
        {
          "components": [
            {
              "internalType": "uint256",
              "name": "joinID",
              "type": "uint256"
            },
            {
              "internalType": "uint256",
              "name": "creationtime",
              "type": "uint256"
            },
            {
              "internalType": "uint256",
              "name": "blockID",
              "type": "uint256"
            },
            {
              "internalType": "address",
              "name": "blockOwner",
              "type": "address"
            },
            {
              "internalType": "address",
              "name": "joiner",
              "type": "address"
            },
            {
              "internalType": "enum FileManagement.JoinStatus",
              "name": "status",
              "type": "uint8"
            },
            {
              "internalType": "uint256",
              "name": "decisiontime",
              "type": "uint256"
            }
          ],
          "internalType": "struct FileManagement.JoinEventStruct[]",
          "name": "",
          "type": "tuple[]"
        }
      ],
      "stateMutability": "view",
      "type": "function"
    },
    {
      "inputs": [],
      "name": "getJoinOutbox",
      "outputs": [
        {
          "components": [
            {
              "internalType": "uint256",
              "name": "joinID",
              "type": "uint256"
            },
            {
              "internalType": "uint256",
              "name": "creationtime",
              "type": "uint256"
            },
            {
              "internalType": "uint256",
              "name": "blockID",
              "type": "uint256"
            },
            {
              "internalType": "address",
              "name": "blockOwner",
              "type": "address"
            },
            {
              "internalType": "address",
              "name": "joiner",
              "type": "address"
            },
            {
              "internalType": "enum FileManagement.JoinStatus",
              "name": "status",
              "type": "uint8"
            },
            {
              "internalType": "uint256",
              "name": "decisiontime",
              "type": "uint256"
            }
          ],
          "internalType": "struct FileManagement.JoinEventStruct[]",
          "name": "",
          "type": "tuple[]"
        }
      ],
      "stateMutability": "view",
      "type": "function"
    },
    {
      "inputs": [],
      "name": "getOutgoingFiles",
      "outputs": [
        {
          "components": [
            {
              "internalType": "uint256",
              "name": "blockID",
              "type": "uint256"
            },
            {
              "internalType": "uint256",
              "name": "forJoinID",
              "type": "uint256"
            },
            {
              "internalType": "bool",
              "name": "localPin",
              "type": "bool"
            },
            {
              "internalType": "address",
              "name": "sender",
              "type": "address"
            },
            {
              "internalType": "address",
              "name": "recipient",
              "type": "address"
            },
            {
              "internalType": "uint256",
              "name": "timestamp",
              "type": "uint256"
            },
            {
              "internalType": "string",
              "name": "extMetadataCID",
              "type": "string"
            },
            {
              "internalType": "string",
              "name": "intMetadataCID",
              "type": "string"
            },
            {
              "components": [
                {
                  "internalType": "bool",
                  "name": "isExpired",
                  "type": "bool"
                },
                {
                  "internalType": "bool",
                  "name": "isPrivate",
                  "type": "bool"
                },
                {
                  "internalType": "bool",
                  "name": "permitRecipientUpdate",
                  "type": "bool"
                }
              ],
              "internalType": "struct FileManagement.FileControlStruct",
              "name": "fileControl",
              "type": "tuple"
            }
          ],
          "internalType": "struct FileManagement.EventStruct[]",
          "name": "",
          "type": "tuple[]"
        }
      ],
      "stateMutability": "view",
      "type": "function"
    },
    {
      "inputs": [
        {
          "internalType": "address",
          "name": "_user",
          "type": "address"
        }
      ],
      "name": "getPublicKey",
      "outputs": [
        {
          "internalType": "string",
          "name": "",
          "type": "string"
        }
      ],
      "stateMutability": "view",
      "type": "function"
    },
    {
      "inputs": [
        {
          "internalType": "uint256",
          "name": "_blockID",
          "type": "uint256"
        }
      ],
      "name": "requestJoinBlock",
      "outputs": [],
      "stateMutability": "nonpayable",
      "type": "function"
    },
    {
      "inputs": [
        {
          "internalType": "uint256",
          "name": "_blockID",
          "type": "uint256"
        }
      ],
      "name": "setExpired",
      "outputs": [],
      "stateMutability": "nonpayable",
      "type": "function"
    },
    {
      "inputs": [
        {
          "internalType": "bool",
          "name": "_isPermit",
          "type": "bool"
        },
        {
          "internalType": "uint256",
          "name": "_blockID",
          "type": "uint256"
        }
      ],
      "name": "setPermitRecipientUpdate",
      "outputs": [],
      "stateMutability": "nonpayable",
      "type": "function"
    },
    {
      "inputs": [
        {
          "internalType": "bool",
          "name": "_isPrivate",
          "type": "bool"
        },
        {
          "internalType": "uint256",
          "name": "_blockID",
          "type": "uint256"
        }
      ],
      "name": "setPrivate",
      "outputs": [],
      "stateMutability": "nonpayable",
      "type": "function"
    },
    {
      "inputs": [
        {
          "internalType": "address",
          "name": "_recipient",
          "type": "address"
        },
        {
          "internalType": "string",
          "name": "_intMetadataCID",
          "type": "string"
        },
        {
          "internalType": "string",
          "name": "_extMetadataCID",
          "type": "string"
        },
        {
          "internalType": "bool",
          "name": "_localPin",
          "type": "bool"
        }
      ],
      "name": "shareFile",
      "outputs": [],
      "stateMutability": "nonpayable",
      "type": "function"
    },
    {
      "inputs": [
        {
          "internalType": "uint256",
          "name": "_blockID",
          "type": "uint256"
        },
        {
          "internalType": "string",
          "name": "_intMetadataCID",
          "type": "string"
        },
        {
          "internalType": "string",
          "name": "_extMetadataCID",
          "type": "string"
        }
      ],
      "name": "updateMetadata",
      "outputs": [],
      "stateMutability": "nonpayable",
      "type": "function"
    },
    {
      "inputs": [
        {
          "internalType": "string",
          "name": "_publicKey",
          "type": "string"
        }
      ],
      "name": "updatePublicKey",
      "outputs": [],
      "stateMutability": "nonpayable",
      "type": "function"
    }
  ],
  "bytecode": "0x608060405234801561001057600080fd5b506139ca806100206000396000f3fe608060405234801561001057600080fd5b50600436106100ea5760003560e01c80635d1cb09c1161008c57806391682f551161006657806391682f5514610221578063960a55751461023d578063acd0c5fa14610259578063af089b2d14610275576100ea565b80635d1cb09c146101b55780635dd0a6c9146101d3578063857cdbb8146101f1576100ea565b80632227eeb1116100c85780632227eeb11461014557806322f8dea51461016157806349f8f7401461017d5780634a88fd4314610199576100ea565b806303880623146100ef57806316a1371c1461010b5780631dc6fa5e14610129575b600080fd5b61010960048036038101906101049190612d63565b610293565b005b610113610564565b6040516101209190613294565b60405180910390f35b610143600480360381019061013e9190612c7e565b610798565b005b61015f600480360381019061015a9190612cf4565b6107f2565b005b61017b60048036038101906101769190612cc7565b610e5d565b005b61019760048036038101906101929190612c3e565b61105d565b005b6101b360048036038101906101ae9190612cc7565b61119d565b005b6101bd6113b5565b6040516101ca9190613294565b60405180910390f35b6101db6115e9565b6040516101e89190613272565b60405180910390f35b61020b60048036038101906102069190612b72565b61197d565b60405161021891906132b6565b60405180910390f35b61023b60048036038101906102369190612c3e565b611a51565b005b61025760048036038101906102529190612b9f565b611c05565b005b610273600480360381019061026e9190612cc7565b611e99565b005b61027d6123ad565b60405161028a9190613272565b60405180910390f35b6003600084815260200190815260200160002060020160019054906101000a900473ffffffffffffffffffffffffffffffffffffffff1673ffffffffffffffffffffffffffffffffffffffff163373ffffffffffffffffffffffffffffffffffffffff1614806103c357506003600084815260200190815260200160002060030160009054906101000a900473ffffffffffffffffffffffffffffffffffffffff1673ffffffffffffffffffffffffffffffffffffffff163373ffffffffffffffffffffffffffffffffffffffff1614801561039257506003600084815260200190815260200160002060070160000160029054906101000a900460ff165b80156103c257506003600084815260200190815260200160002060070160000160019054906101000a900460ff16155b5b610402576040517f08c379a00000000000000000000000000000000000000000000000000000000081526004016103f990613378565b60405180910390fd5b6003600084815260200190815260200160002060070160000160009054906101000a900460ff1615610469576040517f08c379a0000000000000000000000000000000000000000000000000000000008152600401610460906133b8565b60405180910390fd5b6003600084815260200190815260200160002060030160009054906101000a900473ffffffffffffffffffffffffffffffffffffffff1673ffffffffffffffffffffffffffffffffffffffff166003600085815260200190815260200160002060020160019054906101000a900473ffffffffffffffffffffffffffffffffffffffff1673ffffffffffffffffffffffffffffffffffffffff16146105345780600360008581526020019081526020016000206005019080519060200190610532929190612871565b505b8160036000858152602001908152602001600020600601908051906020019061055e929190612871565b50505050565b60606000600260003373ffffffffffffffffffffffffffffffffffffffff1673ffffffffffffffffffffffffffffffffffffffff16815260200190815260200160002060020190506000818054905067ffffffffffffffff8111156105cc576105cb613704565b5b60405190808252806020026020018201604052801561060557816020015b6105f26128f7565b8152602001906001900390816105ea5790505b50905060005b815181101561078f576004600084838154811061062b5761062a6136d5565b5b906000526020600020015481526020019081526020016000206040518060e00160405290816000820154815260200160018201548152602001600282015481526020016003820160009054906101000a900473ffffffffffffffffffffffffffffffffffffffff1673ffffffffffffffffffffffffffffffffffffffff1673ffffffffffffffffffffffffffffffffffffffff1681526020016004820160009054906101000a900473ffffffffffffffffffffffffffffffffffffffff1673ffffffffffffffffffffffffffffffffffffffff1673ffffffffffffffffffffffffffffffffffffffff1681526020016004820160149054906101000a900460ff16600281111561073e5761073d613677565b5b60028111156107505761074f613677565b5b8152602001600582015481525050828281518110610771576107706136d5565b5b60200260200101819052508080610787906135ff565b91505061060b565b50809250505090565b80600260003373ffffffffffffffffffffffffffffffffffffffff1673ffffffffffffffffffffffffffffffffffffffff16815260200190815260200160002060050190805190602001906107ee929190612871565b5050565b600060046000858152602001908152602001600020600501541461084b576040517f08c379a000000000000000000000000000000000000000000000000000000000815260040161084290613358565b60405180910390fd5b600360006004600086815260200190815260200160002060020154815260200190815260200160002060020160019054906101000a900473ffffffffffffffffffffffffffffffffffffffff1673ffffffffffffffffffffffffffffffffffffffff163373ffffffffffffffffffffffffffffffffffffffff1614610905576040517f08c379a00000000000000000000000000000000000000000000000000000000081526004016108fc90613378565b60405180910390fd5b6000600460008581526020019081526020016000206002015490508215610d5a5760006004600086815260200190815260200160002060040160146101000a81548160ff021916908360028111156109605761095f613677565b5b0217905550426004600086815260200190815260200160002060050181905550600080815480929190610992906135ff565b91905055506003600082815260200190815260200160002060020160009054906101000a900460ff16600360008054815260200190815260200160002060020160006101000a81548160ff02191690831515021790555033600360008054815260200190815260200160002060020160016101000a81548173ffffffffffffffffffffffffffffffffffffffff021916908373ffffffffffffffffffffffffffffffffffffffff1602179055506004600085815260200190815260200160002060040160009054906101000a900473ffffffffffffffffffffffffffffffffffffffff16600360008054815260200190815260200160002060030160006101000a81548173ffffffffffffffffffffffffffffffffffffffff021916908373ffffffffffffffffffffffffffffffffffffffff16021790555042600360008054815260200190815260200160002060040181905550600360008281526020019081526020016000206006016003600080548152602001908152602001600020600601908054610b209061359c565b610b2b929190612972565b506003600082815260200190815260200160002060070160036000805481526020019081526020016000206007016000820160009054906101000a900460ff168160000160006101000a81548160ff0219169083151502179055506000820160019054906101000a900460ff168160000160016101000a81548160ff0219169083151502179055506000820160029054906101000a900460ff168160000160026101000a81548160ff021916908315150217905550905050600054600360008054815260200190815260200160002060000181905550836003600080548152602001908152602001600020600101819055508160036000805481526020019081526020016000206005019080519060200190610c48929190612871565b50600260003373ffffffffffffffffffffffffffffffffffffffff1673ffffffffffffffffffffffffffffffffffffffff1681526020019081526020016000206001016000549080600181540180825580915050600190039060005260206000200160009091909190915055600260006004600087815260200190815260200160002060040160009054906101000a900473ffffffffffffffffffffffffffffffffffffffff1673ffffffffffffffffffffffffffffffffffffffff1673ffffffffffffffffffffffffffffffffffffffff1681526020019081526020016000206000016000549080600181540180825580915050600190039060005260206000200160009091909190915055610db5565b60016004600086815260200190815260200160002060040160146101000a81548160ff02191690836002811115610d9457610d93613677565b5b02179055504260046000868152602001908152602001600020600501819055505b6000600260006004600088815260200190815260200160002060040160009054906101000a900473ffffffffffffffffffffffffffffffffffffffff1673ffffffffffffffffffffffffffffffffffffffff1673ffffffffffffffffffffffffffffffffffffffff168152602001908152602001600020600401600083815260200190815260200160002060006101000a81548160ff02191690831515021790555050505050565b6003600082815260200190815260200160002060020160019054906101000a900473ffffffffffffffffffffffffffffffffffffffff1673ffffffffffffffffffffffffffffffffffffffff163373ffffffffffffffffffffffffffffffffffffffff1614610f01576040517f08c379a0000000000000000000000000000000000000000000000000000000008152600401610ef890613378565b60405180910390fd5b6003600082815260200190815260200160002060070160000160009054906101000a900460ff1615610f68576040517f08c379a0000000000000000000000000000000000000000000000000000000008152600401610f5f906133b8565b60405180910390fd5b60016003600083815260200190815260200160002060070160000160006101000a81548160ff0219169083151502179055506040518060400160405280600781526020017f6578706972656400000000000000000000000000000000000000000000000000815250600360008381526020019081526020016000206006019080519060200190610ff9929190612871565b506040518060400160405280600781526020017f6578706972656400000000000000000000000000000000000000000000000000815250600360008381526020019081526020016000206005019080519060200190611059929190612871565b5050565b6003600082815260200190815260200160002060020160019054906101000a900473ffffffffffffffffffffffffffffffffffffffff1673ffffffffffffffffffffffffffffffffffffffff163373ffffffffffffffffffffffffffffffffffffffff1614611101576040517f08c379a00000000000000000000000000000000000000000000000000000000081526004016110f8906132d8565b60405180910390fd5b6003600082815260200190815260200160002060070160000160009054906101000a900460ff1615611168576040517f08c379a000000000000000000000000000000000000000000000000000000000815260040161115f906133b8565b60405180910390fd5b816003600083815260200190815260200160002060070160000160026101000a81548160ff0219169083151502179055505050565b60006004600083815260200190815260200160002060050154146111f6576040517f08c379a00000000000000000000000000000000000000000000000000000000081526004016111ed90613358565b60405180910390fd5b6004600082815260200190815260200160002060040160009054906101000a900473ffffffffffffffffffffffffffffffffffffffff1673ffffffffffffffffffffffffffffffffffffffff163373ffffffffffffffffffffffffffffffffffffffff161461129a576040517f08c379a000000000000000000000000000000000000000000000000000000000815260040161129190613378565b60405180910390fd5b60026004600083815260200190815260200160002060040160146101000a81548160ff021916908360028111156112d4576112d3613677565b5b02179055504260046000838152602001908152602001600020600501819055506000600460008381526020019081526020016000206002015490506000600260006004600086815260200190815260200160002060040160009054906101000a900473ffffffffffffffffffffffffffffffffffffffff1673ffffffffffffffffffffffffffffffffffffffff1673ffffffffffffffffffffffffffffffffffffffff168152602001908152602001600020600401600083815260200190815260200160002060006101000a81548160ff0219169083151502179055505050565b60606000600260003373ffffffffffffffffffffffffffffffffffffffff1673ffffffffffffffffffffffffffffffffffffffff16815260200190815260200160002060030190506000818054905067ffffffffffffffff81111561141d5761141c613704565b5b60405190808252806020026020018201604052801561145657816020015b6114436128f7565b81526020019060019003908161143b5790505b50905060005b81518110156115e0576004600084838154811061147c5761147b6136d5565b5b906000526020600020015481526020019081526020016000206040518060e00160405290816000820154815260200160018201548152602001600282015481526020016003820160009054906101000a900473ffffffffffffffffffffffffffffffffffffffff1673ffffffffffffffffffffffffffffffffffffffff1673ffffffffffffffffffffffffffffffffffffffff1681526020016004820160009054906101000a900473ffffffffffffffffffffffffffffffffffffffff1673ffffffffffffffffffffffffffffffffffffffff1673ffffffffffffffffffffffffffffffffffffffff1681526020016004820160149054906101000a900460ff16600281111561158f5761158e613677565b5b60028111156115a1576115a0613677565b5b81526020016005820154815250508282815181106115c2576115c16136d5565b5b602002602001018190525080806115d8906135ff565b91505061145c565b50809250505090565b60606000600260003373ffffffffffffffffffffffffffffffffffffffff1673ffffffffffffffffffffffffffffffffffffffff16815260200190815260200160002060010190506000818054905067ffffffffffffffff81111561165157611650613704565b5b60405190808252806020026020018201604052801561168a57816020015b6116776129ff565b81526020019060019003908161166f5790505b50905060005b815181101561197457600360008483815481106116b0576116af6136d5565b5b906000526020600020015481526020019081526020016000206040518061012001604052908160008201548152602001600182015481526020016002820160009054906101000a900460ff161515151581526020016002820160019054906101000a900473ffffffffffffffffffffffffffffffffffffffff1673ffffffffffffffffffffffffffffffffffffffff1673ffffffffffffffffffffffffffffffffffffffff1681526020016003820160009054906101000a900473ffffffffffffffffffffffffffffffffffffffff1673ffffffffffffffffffffffffffffffffffffffff1673ffffffffffffffffffffffffffffffffffffffff168152602001600482015481526020016005820180546117ca9061359c565b80601f01602080910402602001604051908101604052809291908181526020018280546117f69061359c565b80156118435780601f1061181857610100808354040283529160200191611843565b820191906000526020600020905b81548152906001019060200180831161182657829003601f168201915b5050505050815260200160068201805461185c9061359c565b80601f01602080910402602001604051908101604052809291908181526020018280546118889061359c565b80156118d55780601f106118aa576101008083540402835291602001916118d5565b820191906000526020600020905b8154815290600101906020018083116118b857829003601f168201915b50505050508152602001600782016040518060600160405290816000820160009054906101000a900460ff161515151581526020016000820160019054906101000a900460ff161515151581526020016000820160029054906101000a900460ff16151515158152505081525050828281518110611956576119556136d5565b5b6020026020010181905250808061196c906135ff565b915050611690565b50809250505090565b6060600260008373ffffffffffffffffffffffffffffffffffffffff1673ffffffffffffffffffffffffffffffffffffffff16815260200190815260200160002060050180546119cc9061359c565b80601f01602080910402602001604051908101604052809291908181526020018280546119f89061359c565b8015611a455780601f10611a1a57610100808354040283529160200191611a45565b820191906000526020600020905b815481529060010190602001808311611a2857829003601f168201915b50505050509050919050565b3373ffffffffffffffffffffffffffffffffffffffff166003600083815260200190815260200160002060020160019054906101000a900473ffffffffffffffffffffffffffffffffffffffff1673ffffffffffffffffffffffffffffffffffffffff1614611af5576040517f08c379a0000000000000000000000000000000000000000000000000000000008152600401611aec90613378565b60405180910390fd5b6003600082815260200190815260200160002060030160009054906101000a900473ffffffffffffffffffffffffffffffffffffffff1673ffffffffffffffffffffffffffffffffffffffff166003600083815260200190815260200160002060020160019054906101000a900473ffffffffffffffffffffffffffffffffffffffff1673ffffffffffffffffffffffffffffffffffffffff161415611bd0576040517f08c379a0000000000000000000000000000000000000000000000000000000008152600401611bc7906132f8565b60405180910390fd5b816003600083815260200190815260200160002060070160000160016101000a81548160ff0219169083151502179055505050565b600080815480929190611c17906135ff565b919050555080600360008054815260200190815260200160002060020160006101000a81548160ff02191690831515021790555033600360008054815260200190815260200160002060020160016101000a81548173ffffffffffffffffffffffffffffffffffffffff021916908373ffffffffffffffffffffffffffffffffffffffff16021790555083600360008054815260200190815260200160002060030160006101000a81548173ffffffffffffffffffffffffffffffffffffffff021916908373ffffffffffffffffffffffffffffffffffffffff160217905550426003600080548152602001908152602001600020600401819055508260036000805481526020019081526020016000206006019080519060200190611d3e929190612871565b506000546003600080548152602001908152602001600020600001819055508373ffffffffffffffffffffffffffffffffffffffff163373ffffffffffffffffffffffffffffffffffffffff1614611e28578160036000805481526020019081526020016000206005019080519060200190611dbb929190612871565b50600260003373ffffffffffffffffffffffffffffffffffffffff1673ffffffffffffffffffffffffffffffffffffffff16815260200190815260200160002060010160005490806001815401808255809150506001900390600052602060002001600090919091909150555b600260008573ffffffffffffffffffffffffffffffffffffffff1673ffffffffffffffffffffffffffffffffffffffff168152602001908152602001600020600001600054908060018154018082558091505060019003906000526020600020016000909190919091505550505050565b6000600360008381526020019081526020016000206000015411611ef2576040517f08c379a0000000000000000000000000000000000000000000000000000000008152600401611ee990613318565b60405180910390fd5b6003600082815260200190815260200160002060020160019054906101000a900473ffffffffffffffffffffffffffffffffffffffff1673ffffffffffffffffffffffffffffffffffffffff163373ffffffffffffffffffffffffffffffffffffffff161415611f97576040517f08c379a0000000000000000000000000000000000000000000000000000000008152600401611f8e90613338565b60405180910390fd5b6003600082815260200190815260200160002060030160009054906101000a900473ffffffffffffffffffffffffffffffffffffffff1673ffffffffffffffffffffffffffffffffffffffff163373ffffffffffffffffffffffffffffffffffffffff16141561203c576040517f08c379a0000000000000000000000000000000000000000000000000000000008152600401612033906133d8565b60405180910390fd5b600260003373ffffffffffffffffffffffffffffffffffffffff1673ffffffffffffffffffffffffffffffffffffffff168152602001908152602001600020600401600082815260200190815260200160002060009054906101000a900460ff16156120dd576040517f08c379a00000000000000000000000000000000000000000000000000000000081526004016120d490613398565b60405180910390fd5b600160008154809291906120f0906135ff565b91905055506001546004600060015481526020019081526020016000206000018190555042600460006001548152602001908152602001600020600101819055506003600082815260200190815260200160002060020160019054906101000a900473ffffffffffffffffffffffffffffffffffffffff1660046000600154815260200190815260200160002060030160006101000a81548173ffffffffffffffffffffffffffffffffffffffff021916908373ffffffffffffffffffffffffffffffffffffffff1602179055503360046000600154815260200190815260200160002060040160006101000a81548173ffffffffffffffffffffffffffffffffffffffff021916908373ffffffffffffffffffffffffffffffffffffffff1602179055508060046000600154815260200190815260200160002060020181905550600260003373ffffffffffffffffffffffffffffffffffffffff1673ffffffffffffffffffffffffffffffffffffffff1681526020019081526020016000206003016001549080600181540180825580915050600190039060005260206000200160009091909190915055600260006003600084815260200190815260200160002060020160019054906101000a900473ffffffffffffffffffffffffffffffffffffffff1673ffffffffffffffffffffffffffffffffffffffff1673ffffffffffffffffffffffffffffffffffffffff16815260200190815260200160002060020160015490806001815401808255809150506001900390600052602060002001600090919091909150556001600260003373ffffffffffffffffffffffffffffffffffffffff1673ffffffffffffffffffffffffffffffffffffffff168152602001908152602001600020600401600083815260200190815260200160002060006101000a81548160ff02191690831515021790555050565b60606000600260003373ffffffffffffffffffffffffffffffffffffffff1673ffffffffffffffffffffffffffffffffffffffff16815260200190815260200160002060000190506000818054905067ffffffffffffffff81111561241557612414613704565b5b60405190808252806020026020018201604052801561244e57816020015b61243b6129ff565b8152602001906001900390816124335790505b50905060005b81518110156128685760036000848381548110612474576124736136d5565b5b906000526020600020015481526020019081526020016000206040518061012001604052908160008201548152602001600182015481526020016002820160009054906101000a900460ff161515151581526020016002820160019054906101000a900473ffffffffffffffffffffffffffffffffffffffff1673ffffffffffffffffffffffffffffffffffffffff1673ffffffffffffffffffffffffffffffffffffffff1681526020016003820160009054906101000a900473ffffffffffffffffffffffffffffffffffffffff1673ffffffffffffffffffffffffffffffffffffffff1673ffffffffffffffffffffffffffffffffffffffff1681526020016004820154815260200160058201805461258e9061359c565b80601f01602080910402602001604051908101604052809291908181526020018280546125ba9061359c565b80156126075780601f106125dc57610100808354040283529160200191612607565b820191906000526020600020905b8154815290600101906020018083116125ea57829003601f168201915b505050505081526020016006820180546126209061359c565b80601f016020809104026020016040519081016040528092919081815260200182805461264c9061359c565b80156126995780601f1061266e57610100808354040283529160200191612699565b820191906000526020600020905b81548152906001019060200180831161267c57829003601f168201915b50505050508152602001600782016040518060600160405290816000820160009054906101000a900460ff161515151581526020016000820160019054906101000a900460ff161515151581526020016000820160029054906101000a900460ff1615151515815250508152505082828151811061271a576127196136d5565b5b6020026020010181905250818181518110612738576127376136d5565b5b6020026020010151610100015160200151801561279f57503373ffffffffffffffffffffffffffffffffffffffff1682828151811061277a576127796136d5565b5b60200260200101516060015173ffffffffffffffffffffffffffffffffffffffff1614155b15612855576040518060400160405280600781526020017f70726976617465000000000000000000000000000000000000000000000000008152508282815181106127ed576127ec6136d5565b5b602002602001015160e001819052506040518060400160405280600781526020017f7072697661746500000000000000000000000000000000000000000000000000815250828281518110612845576128446136d5565b5b602002602001015160c001819052505b8080612860906135ff565b915050612454565b50809250505090565b82805461287d9061359c565b90600052602060002090601f01602090048101928261289f57600085556128e6565b82601f106128b857805160ff19168380011785556128e6565b828001600101855582156128e6579182015b828111156128e55782518255916020019190600101906128ca565b5b5090506128f39190612a7f565b5090565b6040518060e00160405280600081526020016000815260200160008152602001600073ffffffffffffffffffffffffffffffffffffffff168152602001600073ffffffffffffffffffffffffffffffffffffffff1681526020016000600281111561296557612964613677565b5b8152602001600081525090565b82805461297e9061359c565b90600052602060002090601f0160209004810192826129a057600085556129ee565b82601f106129b157805485556129ee565b828001600101855582156129ee57600052602060002091601f016020900482015b828111156129ed5782548255916001019190600101906129d2565b5b5090506129fb9190612a7f565b5090565b6040518061012001604052806000815260200160008152602001600015158152602001600073ffffffffffffffffffffffffffffffffffffffff168152602001600073ffffffffffffffffffffffffffffffffffffffff168152602001600081526020016060815260200160608152602001612a79612a9c565b81525090565b5b80821115612a98576000816000905550600101612a80565b5090565b60405180606001604052806000151581526020016000151581526020016000151581525090565b6000612ad6612ad18461341d565b6133f8565b905082815260208101848484011115612af257612af1613738565b5b612afd84828561355a565b509392505050565b600081359050612b148161394f565b92915050565b600081359050612b2981613966565b92915050565b600082601f830112612b4457612b43613733565b5b8135612b54848260208601612ac3565b91505092915050565b600081359050612b6c8161397d565b92915050565b600060208284031215612b8857612b87613742565b5b6000612b9684828501612b05565b91505092915050565b60008060008060808587031215612bb957612bb8613742565b5b6000612bc787828801612b05565b945050602085013567ffffffffffffffff811115612be857612be761373d565b5b612bf487828801612b2f565b935050604085013567ffffffffffffffff811115612c1557612c1461373d565b5b612c2187828801612b2f565b9250506060612c3287828801612b1a565b91505092959194509250565b60008060408385031215612c5557612c54613742565b5b6000612c6385828601612b1a565b9250506020612c7485828601612b5d565b9150509250929050565b600060208284031215612c9457612c93613742565b5b600082013567ffffffffffffffff811115612cb257612cb161373d565b5b612cbe84828501612b2f565b91505092915050565b600060208284031215612cdd57612cdc613742565b5b6000612ceb84828501612b5d565b91505092915050565b600080600060608486031215612d0d57612d0c613742565b5b6000612d1b86828701612b5d565b9350506020612d2c86828701612b1a565b925050604084013567ffffffffffffffff811115612d4d57612d4c61373d565b5b612d5986828701612b2f565b9150509250925092565b600080600060608486031215612d7c57612d7b613742565b5b6000612d8a86828701612b5d565b935050602084013567ffffffffffffffff811115612dab57612daa61373d565b5b612db786828701612b2f565b925050604084013567ffffffffffffffff811115612dd857612dd761373d565b5b612de486828701612b2f565b9150509250925092565b6000612dfa83836130c7565b905092915050565b6000612e0e83836131d5565b60e08301905092915050565b612e23816134ed565b82525050565b6000612e348261346e565b612e3e81856134a9565b935083602082028501612e508561344e565b8060005b85811015612e8c5784840389528151612e6d8582612dee565b9450612e788361348f565b925060208a01995050600181019050612e54565b50829750879550505050505092915050565b6000612ea982613479565b612eb381856134ba565b9350612ebe8361345e565b8060005b83811015612eef578151612ed68882612e02565b9750612ee18361349c565b925050600181019050612ec2565b5085935050505092915050565b612f05816134ff565b82525050565b612f1481613548565b82525050565b6000612f2582613484565b612f2f81856134cb565b9350612f3f818560208601613569565b612f4881613747565b840191505092915050565b6000612f5e82613484565b612f6881856134dc565b9350612f78818560208601613569565b612f8181613747565b840191505092915050565b6000612f99600c836134dc565b9150612fa482613758565b602082019050919050565b6000612fbc602e836134dc565b9150612fc782613781565b604082019050919050565b6000612fdf6019836134dc565b9150612fea826137d0565b602082019050919050565b6000613002602e836134dc565b915061300d826137f9565b604082019050919050565b60006130256021836134dc565b915061303082613848565b604082019050919050565b6000613048600d836134dc565b915061305382613897565b602082019050919050565b600061306b6020836134dc565b9150613076826138c0565b602082019050919050565b600061308e6010836134dc565b9150613099826138e9565b602082019050919050565b60006130b16019836134dc565b91506130bc82613912565b602082019050919050565b6000610160830160008301516130e06000860182613263565b5060208301516130f36020860182613263565b5060408301516131066040860182612efc565b5060608301516131196060860182612e1a565b50608083015161312c6080860182612e1a565b5060a083015161313f60a0860182613263565b5060c083015184820360c08601526131578282612f1a565b91505060e083015184820360e08601526131718282612f1a565b915050610100830151613188610100860182613193565b508091505092915050565b6060820160008201516131a96000850182612efc565b5060208201516131bc6020850182612efc565b5060408201516131cf6040850182612efc565b50505050565b60e0820160008201516131eb6000850182613263565b5060208201516131fe6020850182613263565b5060408201516132116040850182613263565b5060608201516132246060850182612e1a565b5060808201516132376080850182612e1a565b5060a082015161324a60a0850182612f0b565b5060c082015161325d60c0850182613263565b50505050565b61326c8161353e565b82525050565b6000602082019050818103600083015261328c8184612e29565b905092915050565b600060208201905081810360008301526132ae8184612e9e565b905092915050565b600060208201905081810360008301526132d08184612f53565b905092915050565b600060208201905081810360008301526132f181612f8c565b9050919050565b6000602082019050818103600083015261331181612faf565b9050919050565b6000602082019050818103600083015261333181612fd2565b9050919050565b6000602082019050818103600083015261335181612ff5565b9050919050565b6000602082019050818103600083015261337181613018565b9050919050565b600060208201905081810360008301526133918161303b565b9050919050565b600060208201905081810360008301526133b18161305e565b9050919050565b600060208201905081810360008301526133d181613081565b9050919050565b600060208201905081810360008301526133f1816130a4565b9050919050565b6000613402613413565b905061340e82826135ce565b919050565b6000604051905090565b600067ffffffffffffffff82111561343857613437613704565b5b61344182613747565b9050602081019050919050565b6000819050602082019050919050565b6000819050602082019050919050565b600081519050919050565b600081519050919050565b600081519050919050565b6000602082019050919050565b6000602082019050919050565b600082825260208201905092915050565b600082825260208201905092915050565b600082825260208201905092915050565b600082825260208201905092915050565b60006134f88261351e565b9050919050565b60008115159050919050565b60008190506135198261393b565b919050565b600073ffffffffffffffffffffffffffffffffffffffff82169050919050565b6000819050919050565b60006135538261350b565b9050919050565b82818337600083830152505050565b60005b8381101561358757808201518184015260208101905061356c565b83811115613596576000848401525b50505050565b600060028204905060018216806135b457607f821691505b602082108114156135c8576135c76136a6565b5b50919050565b6135d782613747565b810181811067ffffffffffffffff821117156135f6576135f5613704565b5b80604052505050565b600061360a8261353e565b91507fffffffffffffffffffffffffffffffffffffffffffffffffffffffffffffffff82141561363d5761363c613648565b5b600182019050919050565b7f4e487b7100000000000000000000000000000000000000000000000000000000600052601160045260246000fd5b7f4e487b7100000000000000000000000000000000000000000000000000000000600052602160045260246000fd5b7f4e487b7100000000000000000000000000000000000000000000000000000000600052602260045260246000fd5b7f4e487b7100000000000000000000000000000000000000000000000000000000600052603260045260246000fd5b7f4e487b7100000000000000000000000000000000000000000000000000000000600052604160045260246000fd5b600080fd5b600080fd5b600080fd5b600080fd5b6000601f19601f8301169050919050565b7f556e617574686f72697a65640000000000000000000000000000000000000000600082015250565b7f43616e6e6f7420736574207072697661746520666f722066696c65732073656e60008201527f7420746f20796f757273656c662e000000000000000000000000000000000000602082015250565b7f54686520626c6f636b20646f6573206e6f742065786973742e00000000000000600082015250565b7f596f752063616e2774207265717565737420746f206a6f696e2074686520626c60008201527f6f636b20796f75206f776e65642e000000000000000000000000000000000000602082015250565b7f546865207265717565737420697320616c72656164792070726f63657373656460008201527f2e00000000000000000000000000000000000000000000000000000000000000602082015250565b7f556e617574686f72697a65642e00000000000000000000000000000000000000600082015250565b7f54686520726571756573742069732070656e64696e6720617070726f76616c2e600082015250565b7f416c726561647920657870697265642e00000000000000000000000000000000600082015250565b7f416c7265616479206a6f696e65642074686520626c6f636b2e00000000000000600082015250565b6003811061394c5761394b613677565b5b50565b613958816134ed565b811461396357600080fd5b50565b61396f816134ff565b811461397a57600080fd5b50565b6139868161353e565b811461399157600080fd5b5056fea2646970667358221220ea9c6ec4c31b13a8ab5ccb3a4aacb3d2ff9c49aba917d62939a46d272d68cd2564736f6c63430008070033",
  "linkReferences": {},
  "deployedLinkReferences": {}
}